:020000040800F2
:1000000018080020BD010008592800083524000800
:10001000552800083D0500086D2800080000000074
:10002000000000000000000000000000612800083F
:1000300041050008000000005D2800086528000850
:10004000D7010008D7010008D7010008D701000830
:10005000D7010008D7010008D7010008D701000820
:10006000D7010008D7010008D7010008D701000810
:10007000D7010008D7010008D7010008D701000800
:10008000D7010008D7010008D7010008D7010008F0
:10009000D7010008D7010008D7010008D7010008E0
:1000A000D7010008D7010008D7010008D7010008D0
:1000B000D7010008D7010008D7010008D7010008C0
:1000C000D7010008D7010008D7010008D7010008B0
:1000D000D7010008D7010008D7010008D7010008A0
:1000E000D7010008D7010008D701000800F002F886
:1000F00000F055F814A696E8000CB244B344DA4573
:1001000001D100F04CF8BAE80F000FA696E83000D5
:10011000A5EB040504EB0607AAEB0704A7F101070A
:100120004FEA15154FEA3414A4F10104AC4201D38F
:1001300000F035F813F0010F18BFFB1A43F001036C
:1001400000F001F8DBE7184788450000A8450000EB
:10015000103A24BF78C878C1FAD8520724BF30C8F3
:1001600030C144BF04680C60704700007047000055
:100170000023002400250026103A28BF78C1FBD8B0
:10018000520728BF30C148BF0B607047642900F098
:100190007D80002070471FB51FBD10B510BD00F059
:1001A0003FF91146FFF7F7FF02F076FC00F05DF92A
:1001B00003B4FFF7F2FF03BC00F060F90948804781
:1001C00009480047FEE7FEE7FEE7FEE7FEE7FEE739
:1001D000FEE7FEE7FEE7FEE704480549054A064B51
:1001E0007047000069280008ED0000081802002090
:1001F0001808002018040020180400200FB41CB5B3
:10020000074B06AA7B4469460090059800F0E7F882
:100210000020694600F0F6F81CBC5DF814FB0000F5
:10022000FD0100002DE9F0410E4604460020206249
:100230002046E168884730B3252805D0D4E901215C
:100240009047206A401CF2E7E16820460027884773
:10025000050018D0A5F14100192802D820354FF427
:1002600000673246294620462760FFF78FFF40B1DE
:10027000012804D0F61D26F007060836D8E7361DFB
:10028000D6E72846DAE7206ABDE8F0812DE9F0419B
:100290000646002410687529314616A510D0AFF324
:1002A0000080002802DA404213A507E031688A077F
:1002B00001D512A502E0490704D511A5012401E0EA
:1002C000AFF3008000210A2206F1240709E0B0FB09
:1002D000F2FCB0FBF2F302FB1C00303078541846FD
:1002E000491C0028F3D123462A463046BDE8F04198
:1002F00000F016B8000000002D0000002B000000E8
:100300002000000070477047704710B500F080F87B
:10031000006810BD10B5044600F07AF8046010BD06
:100320002DE9F0470D4699469246044600F124080F
:100330000168880604D5E06921F01001216000E021
:100340000120A84201DD471B00E00027A1697A19BE
:1003500002EB0900081AA0612078C00602D42046EA
:10036000AFF30080002608E0D4E901211AF8060066
:100370009047206A401C761C20624E45F4DB2078B2
:10038000C0060AD52046AFF3008006E0D4E901217B
:1003900030209047206A401C2062381EA7F10107D8
:1003A000F4DC07E0D4E9012118F805009047206A41
:1003B000401C2062281EA5F10105F3DC2046AFF3A6
:1003C00000802078000602D50220BDE8F0870120D9
:1003D000FBE7000001694A1C02610878704700B51C
:1003E0008FB0CDE901310021059105497944CDE96E
:1003F000031011466846FFF715FF0FB000BD00005F
:10040000E5FFFFFF0A6802F8010B0A607047000071
:10041000004870471000002000487047100000207E
:100420007546FFF7F9FFAE4605006946534620F0D2
:100430000700854618B020B5FFF7CEFEBDE8204086
:100440004FF000064FF000074FF000084FF0000B90
:10045000AC46ACE8C009ACE8C009ACE8C009ACE8FF
:10046000C00921F007018D46704710B50446AFF36F
:1004700000802046BDE81040FFF79ABE01491820D1
:10048000ABBEFEE72600020070470000B0B582B0A8
:1004900004460020019021688A68D2074BD1886801
:1004A00040F00100886040F20800C2F200000068DD
:1004B0004DF68361C4F21B31A0FB0101880C019051
:1004C0000198A0B1019801380190019878B1019884
:1004D00001380190019850B10198013801900198BC
:1004E00028B101980138019001980028EAD100F064
:1004F000C7FC21688968C9071CD1054603E000BF15
:100500008068C00716D100F0BBFC411B206803299E
:10051000F6D38168C907F3D1A06A40F01000A06249
:10052000E06A40F00100E062002084F8240001202D
:1005300002B0B0BD002002B0B0BD0000FEE7000078
:100540007047000070B581B00022009290F824201E
:10055000012A03D10221084601B070BD4A68012377
:10056000062A02EB820E80F8243007D8D0F800C0AB
:100570006FF004030CF134060CE000BFD0F800C0AB
:100580000C2A87BF0CF12C066FF040030CF13006EB
:100590006FF022030EEB03021F23346803FA02F507
:1005A0000B6824EA050503FA02F22A433260092B9C
:1005B00003EB43021AD9DCF80C601E3A0725896860
:1005C0009540AE43914023F001023143102ACCF80C
:1005D0000C1015D142F20041C4F201018C4517D034
:1005E000816A41F02001816201210AE0DCF81030CB
:1005F000072689689640B34391401943CCF8101000
:100600000021002280F82420084601B070BD00BF00
:1006100089680902F4D4DCF80810102B41F40001B9
:10062000CCF80810ECD140F20801C2F200010968D0
:100630004DF68362C4F21B32A1FB0212910C01EB56
:1006400081014900009100990029D9D00099013910
:10065000009100990029D3D00099013900910099A7
:100660000029CDD000990139009100990029C7D007
:10067000009901390091009900294FF00001E5D15E
:10068000BFE700000068C06C70470000002804BF8E
:1006900001207047B0B50446806A28B12168886897
:1006A000C0070CD115E000BF0020E06284F82400F0
:1006B000204600F097F821688868C00709D088684C
:1006C00020F00100886000F0DBFB21688A68D20717
:1006D00026D1A06AC0063AD4A06A41F20212904321
:1006E0000230A062E069D4E9013240EA030C531EF3
:1006F000B3FA83F35D091346B2F5807F18BF2B026E
:10070000207D257B01284CEA45002CD135B3A56A14
:1007100045F02005A562E56A45F00105E56222E0A5
:10072000054602E08868C007D3D000F0A9FB401B53
:1007300021680328F6D38868C007F3D0A06A40F088
:100740001000A062E06A40F00100E062A06AA06AC6
:1007500040F01000A0620120B0BD00BFA56903EB0E
:100760004533A3F5C0534D68B2F5807F25F4694544
:1007700043EA05034B608B684FF2FD75CFF6E175D8
:1007800003EA050343EA00038B6001D0012A07D185
:1007900022690023CFF6F07303EB025201E000BFA1
:1007A0000022CB6A23F470031A43CA62896840F6B8
:1007B000FE62CFF61F721140814207D10020E06235
:1007C000A16A012262F30101A162B0BDA06A40F0FA
:1007D000100020F00200A062E06A40F00100E06238
:1007E0000120B0BD70B586B040F60004C4F201042B
:1007F000006804F5E05188424FF00000CDE90400A4
:10080000CDE9020002D006B070BD00BF41F2180071
:10081000C4F20200016802AD41F400710160016898
:10082000032601F4007101910199016841F004016E
:100830000160016801F0040101910199016841F032
:10084000080101600068294600F008000190019845
:100850002046CDE9026600F0FFF90220CDE902064C
:1008600004F58060294600F0F7F906B070BD00007D
:100870002DE9F04182B000270D460446019700F0B3
:10088000FFFA21688A68D20544D406464868C00544
:1008900003D4C86A10F4700F46D040F20800C2F2C8
:1008A0000000076842F292480220C1F2492800F095
:1008B00067FD216844F624130A69B7FBF0F0C2F221
:1008C00092431A4206D1CA6844F62413C0F2920336
:1008D0001A425BD00A6912EA080F07D1CA6842F2CD
:1008E0009243C0F249031A4200F0C0800A6949F2FB
:1008F0004923C0F224031A424FF0FC0254D1CF68BE
:100900001F4208BF5422019B02FB00F7BB4250D399
:10091000C3E000BFA06A40F02000A06284F8247009
:10092000012002B0BDE8F0810868800700F1B580C1
:10093000681C00F0A880FDB90868800770D50868B9
:10094000800700F1AA800868800769D508688007D9
:1009500000F1A3800868800762D50868800700F16D
:100960009C80086880075BD508688007E4D594E020
:100970000868800700F1918000F082FA801B2168EE
:10098000A842F5D908688007F2D449E00A6912EA5A
:10099000080F4FF0290207D1CB6842F29247C0F20C
:1009A00049073B4208BF1422019B02FB00F7BB42F0
:1009B00073D2681C52D05DBB0198B84230D3019805
:1009C000013001900198B84267D20198B84227D30C
:1009D0000198013001900198B8425ED20198B84266
:1009E0001ED30198013001900198B84255D2019868
:1009F000B84215D30198013001900198B842DBD379
:100A00004BE000BF0198013001900198B84235D207
:100A100000F036FA801BA842F4D90198B842F1D20E
:100A2000A06A40F00400A062002084F824000320A3
:100A300002B0BDE8F08100BF01980130019001983B
:100A4000B8422AD20198013001900198B84224D2CC
:100A50000198013001900198B8421ED201980130EE
:100A600001900198B842E7D317E000BF5422019BE0
:100A700002FB00F7BB429CD30FE000BF21680CE0F3
:100A80000868800709D40868800706D408688007CA
:100A90005CBF08685FEA8070F2D56FF012000860F2
:100AA000A06A40F40070A062886800F46020B0F58D
:100AB000602F01D1207B18B1002002B0BDE8F08189
:100AC000A06A20F48070A062A06AC004F4D4A06A76
:100AD00040F00100A062002002B0BDE8F0810000FB
:100AE00010B5044690F82400012804BF022010BD70
:100AF000012084F824002046FFF7C8FC20B1002024
:100B000084F82400012010BD42F2044C2068A16A40
:100B1000C4F2010C40F2013291430CF57F7201F5F1
:100B200080719042A16229D0A16A21F48011A16252
:100B30004168490504D5A16A012363F30D31A1621F
:100B4000A16A0023C9044FF0000144BFE16A21F00B
:100B50000601E1626FF0020184F8243001608168CF
:100B600001F46021B1F5602F1BD1904214D081684F
:100B700041F4A0018160002010BD00BFDCF800102E
:100B800011F4702FD0D0A16A41F48011A162DCF879
:100B900000104905CFD4D3E7DCF8001011F4702F12
:100BA000E5D0816841F480118160002010BD000013
:100BB000B0B5044690F82400012804BF0220B0BD5F
:100BC0000121206884F824108168C90709D0816850
:100BD00021F00101816000F053F921688968C9079B
:100BE0000ED1214651F8280F41F2011220EA0202EB
:100BF000002042F001020A60002184F82410B0BDF8
:100C0000054602E08068C007EBD000F039F9411BCF
:100C100020680329F6D38168C907F3D0A06A21466A
:100C200040F01000A06251F82C2F0120E1E70000F5
:100C3000B0B5044600F024F9054640F20000C2F2C7
:100C400000000078611C18BF044400BF00F018F9D0
:100C5000401BA042FAD3B0BD2DE9F04F82B00E6820
:100C6000002E00F0FD8041F20042C4F20102042394
:100C700040F2004E904208BF03234FF6FF7CC4F2BF
:100C8000010E009300240123C1F2100C4FF0000A62
:100C90004FF000094BE000BF41F20002C4F2010234
:100CA000009F904208BF022704F00C030F229A40D5
:100CB0002BEA020207FA03F34FEA9A051A4346F8B1
:100CC00025204E6840F20C45F202DEF8082054BFA1
:100CD00022EA080242EA0802C4F20105CEF808201E
:100CE0002A68B30254BF22EA080242EA08022A60D4
:100CF000B303DEF8042054BF22EA080242EA0802E5
:100D0000F303CEF80420DEF800204FF0010354BFB7
:100D100022EA080242EA0802CEF800200E680AF130
:100D2000010A36FA0AF204F1040400F0998003FA89
:100D30000AFB16EA0B08F1D04E68664512DC122E4B
:100D400056D8DFE806F0350B4D49555555555555E4
:100D50005555555555555545510000BFD1F80C9086
:100D600046E000BF4FF6FF72C1F2210296420FDC4F
:100D70000022C1F2110296421AD00022C1F21202E0
:100D8000964215D00022C1F22102964210D02FE0E7
:100D90000022C1F2220296420AD00022C1F23102A0
:100DA000964205D00022C1F23202964220D100BF05
:100DB0008A684AB1012A14BFC0F814B0C0F810B054
:100DC0004FF0080914E000BF4FF0040910E000BF25
:100DD000CA6802F104090BE04FF0000908E000BF07
:100DE000CA6802F1080903E0CA6802F10C0900BFF1
:100DF00002462646B8F5807F24BF0432203E17689D
:100E00000F25B54027EA050509FA06F635431560B2
:100E1000CA79D2067FF582AF41F21803C4F2020309
:100E20001A68AEF57E7642F001021A601A6802F086
:100E300001020192019A2AF0030256F802B040F62C
:100E40000002C4F20102904208D040F60042C4F20F
:100E5000010290427FF420AF012725E7002723E716
:100E600002B0BDE8F08F00008068084018BF012084
:100E700070470000002A08BF0904016170470000A4
:100E800040F21020C2F2000000687047002804BF42
:100E900001207047F0B581B0044690F83D0028B9B4
:100EA000002084F83C00204600F090F9242084F8CB
:100EB0003D002068016821F001010160016841F4F2
:100EC00000410160016821F40041016000F034FC40
:100ED000636848F2A16CC0F2010C40F60011C0F248
:100EE0003D0163453CBF48F28041C0F21E0188428B
:100EF00002D2012001B0F0BD4DF68361C4F21B3176
:100F0000A0FB01122168970CD1F804E04FF496760B
:100F10002EF03F0545EA92454D60774348F6381676
:100F20000D6AC0F24106A7FB067625F03F07634530
:100F300038BF960C721C3A430A62CA6948F2A0662E
:100F40004CF6FF77C0F20106B34222EA07020BD843
:100F500001385B00B0FBF3F001306FF31F30042861
:100F600098BF04201BE000BFA768013857B11927BC
:100F70007B43B0FBF3F001306FF31F3070B100F52D
:100F8000804007E003EB4303B0FBF3F001306FF365
:100F90001F3018B100F5004001E000BF01201043F0
:100FA000C8610868D4E9072320F0C0001043184343
:100FB0000860886848F2FF3204F10C0790438CCF38
:100FC00018431043A6698860C86820F0FF003843C2
:100FD0003043C860086840F001000860002020210C
:100FE000206484F83D10206384F83E0001B0F0BD19
:100FF0002DE9F04383B01E46174689460446FFF7A5
:101000003FFF94F83D10202924D10546206800BFF9
:10101000816989071AD5FFF733FF411B20681A2918
:10102000F6D381698907F3D500202021206384F855
:101030003D1084F83E00216C41F02001216484F8C9
:101040003C00022003B0BDE8F08300BF94F83C10E0
:10105000012903D1022003B0BDE8F083012184F807
:101060003C100168C90703D1016841F0010101602A
:10107000016840F2020821F400610160212184F836
:101080003D10102184F83E100021216467626685BE
:10109000618DC0F201082185A8F10211E162E16AC7
:1010A0000A9E11F5803F18BF01291DD1016841F446
:1010B0008071016020464FF00111002233460095F7
:1010C00001F018FA50B120680068C00544BF4FF421
:1010D00000702064012003B0BDE8F0832069B0F502
:1010E000804F07D1FE2015E00829DFD0216B12299F
:1010F000DCD0DFE7062000EAD9102168F030086173
:1011000008F10601204632462B4601F0D9FA0028A4
:10111000E0D1FF20216800EA09000861204641462D
:1011200032462B4601F0CCFA0028D3D100200290A1
:1011300020684169029180690290029806E000BF30
:10114000204631462A4601F077F918BB208D68B356
:10115000204631462A4601F01FFBD8B9606A216853
:10116000024612F8013B0B616262628D013A6285B0
:10117000228D531E23854F697F07E1D51B04DFD0E5
:10118000437802300B616062608D01386085901E8B
:101190002085D5E7206C04289CD12068016841F4A3
:1011A00000710160012003B0BDE8F0832068016890
:1011B00041F400710160202084F83D00002084F893
:1011C0003E0084F83C0003B0BDE8F08310B586B063
:1011D000016845F20040C4F2000081424FF0000176
:1011E000CDE90411CDE9021102D006B010BD00BF57
:1011F00041F21804C4F20204216800F5384041F0BD
:1012000008012160216801F0080101910199C021C4
:101210000291122103910321059102A9FFF71CFD00
:10122000606840F400106060606800F40010019095
:10123000019806B010BD000040F2000040F21021FD
:10124000C2F20000C2F2000100780A68104408608F
:101250007047000080B542F20000C4F2020001684D
:1012600041F010010160032000F07AF8022000F044
:1012700005F800F027F8002080BD000070B540F2AE
:101280000006C2F2000640F208013278C2F2000104
:101290004FF47A730968B3FBF2F20446B1FBF2F142
:1012A000084600F071FC0F2C4FF0010508D838B942
:1012B0004FF0FF3021460022002500F025F8746031
:1012C000284670BD82B041F21800C4F202000168E5
:1012D000022241F001010160016801F00101019168
:1012E0000199416841F080514160406800F08050B0
:1012F000009000980420C4F20100016862F31A61B2
:10130000016002B07047000010B54EF60C5CCEF2E2
:10131000000CDCF80030C3F3022E8EF00704042C1E
:1013200028BF0424BEF103034FF0FF3E0EFA04F47D
:1013300038BF0023A14399400EFA03F39A431143A7
:1013400000F00F0200F160430901043A03F5644321
:101350006244002848BF02F10C03197010BD000060
:101360004EF60C51CEF200010A684FF6FF031A4008
:1013700060F30A2242F0806040F0FD700860704720
:10138000012821D002280DD0102808D141F20401F3
:10139000C4F202010A6851F8040CC00134D40020E0
:1013A000704700BF80B500F0DBF941F20401C4F2E0
:1013B000020109680222C1F3813102EB4101B0FB55
:1013C000F1F0BDE88040704741F20400C4F2020031
:1013D000C16940F202320A40B2F5817F04BF4FF486
:1013E0000040704701F44071B1F5407F18D0B1F56D
:1013F000007F1CBF00207047006A49F6404180070B
:1014000001EAE070704700BFC2F3834015A3185C87
:10141000D2030DD440F60012C0F23D02504313E057
:1014200050F8040C4FF22441800301EAE070704749
:101430000A6810A3C2F340429A5C41F20023C0F252
:101440007A03B3FBF2F250430968490248BF704780
:101450004AF6AB214000CAF6AA21A0FB01014808C8
:10146000704700BF02030405060708090A0B0C0DAC
:101470000E0F1010010200002DE9F04182B0044669
:10148000007841F21C06C007C4F202064AD0306858
:101490005FEAC00808D4306840F08050306030689F
:1014A00000F080500190019847F20007C4F2000755
:1014B0003868C00512D4386840F480703860FFF78F
:1014C000DFFC05463868C00508D4FFF7D9FC401B8F
:1014D0006428F7D9032002B0BDE8F081706810F4E9
:1014E000407012D0616801F4407188420DD070687C
:1014F00040F24042C4F24222012320F440711360C2
:101500000023C0071360716026D17068616820F401
:1015100040700843B8F1000F706003D4306820F0C9
:10152000805030602068810707D556F8181CA268E3
:1015300021F44041114346F8181CC00607D556F85F
:10154000180CE16820F48000084346F8180C0020CD
:1015500002B0BDE8F08100BFFFF792FC054641F202
:10156000883700BF70688007CFD4FFF789FC401B25
:10157000B8424FF00300F5D9EAE70000002804BFA5
:10158000012070472DE9F04381B042F20008C4F217
:1015900002080446D8F800000D4600F0070081421A
:1015A0000CD9D8F8000020F007002843C8F8000044
:1015B000D8F8000000F00700A8426CD1206841F282
:1015C00004098107C4F2020917D5410705D5D9F8E6
:1015D000001041F4E061C9F80010010705D5D9F801
:1015E000001041F46051C9F80010D9F80010A26849
:1015F00021F0F0011143C9F80010C00742D1D8F81A
:10160000000000F0070085420CD2D8F8000020F05E
:1016100007002843C8F80000D8F8000000F00700D1
:10162000A84238D12068410707D5D9F80010E268F0
:1016300021F4E0611143C9F80010000708D5D9F87A
:101640000000216920F4605040EAC100C9F80000A0
:10165000D9F8002002F00C00082841F20020C0F266
:101660007A004DD144F2B463C2F38341C0F6000363
:10167000595CD20338D440F60010C0F23D00484314
:101680003EE000BF606859F8041C022808D0012819
:1016900026D1890306D4012001B0BDE8F08300BF44
:1016A0008901F8D5D9F8001021F003010843C9F8E1
:1016B0000000FFF7E5FB064641F28837D9F8000045
:1016C000616800F00C00B0EB810F98D0FFF7D8FBF9
:1016D000801BB842F2D9032001B0BDE8F08300BFFF
:1016E0008907D8D5DEE700BFD9F8002044F2B263FD
:1016F000C2F34042C0F600039A5C4843B0FBF2F0EC
:10170000D9F8001044F29A62C1F30311C0F6000246
:10171000515C40F2080220FA01F140F20400C2F2EA
:1017200000000068C2F200021160FFF7A7FD002070
:1017300001B0BDE8F083000040F2080041F204016E
:10174000C2F20000C4F202010068096844F2AA6211
:10175000C1F30221C0F60002515CC840704700008E
:1017600040F2080041F20401C2F20000C4F202019A
:101770000068096844F2AA62C1F3C221C0F60002FF
:10178000515CC84070470000002804BF012070472A
:101790002DE9F04182B00446007841F20006C0070E
:1017A000C4F202060CD0706800F00C00042840F06F
:1017B00081803068800303D56068002800F046818E
:1017C000207880071BD5706810F00C0F09D0706866
:1017D00000F00C00082840F087807068C00300F11A
:1017E00083803068800703D52069012840F02E816E
:1017F0003068616920F0F80040EAC100306020786C
:10180000000713D4207840072CD4E569002D00F0A0
:101810001881706800F00C00082840F0A780012DA6
:1018200040F00481012002B0BDE8F081A0690028E9
:1018300000F084800020C4F242200121C0F880140E
:10184000FFF71EFB054600BF706A800700F1B280FB
:10185000FFF716FB401B0228F6D9032002B0BDE8B3
:10186000F08100BFF0695FEAC00808D4F06940F079
:101870008050F061F06900F080500090009847F2CD
:101880000007C4F200073868C00549D4386840F43E
:1018900080703860FFF7F4FA054600BF3868C0056D
:1018A0003ED4FFF7EDFA401B6428F7D9032002B0BD
:1018B000BDE8F081706800F00C00082803D1706862
:1018C000C0033FF576AF61683068002900F00C81F5
:1018D000B1F5A02F00F00081B1F5803F40F01A81F2
:1018E00040F480301CE100BF2069002840F2000075
:1018F000C4F2422000F0888001210160FFF7C0FAA5
:10190000054600BF306880073FF572AFFFF7B8FAB1
:10191000401B0228F6D9032002B0BDE8F08100BFC9
:10192000E168306A002900F09D80052900F092806E
:10193000012940F0AF8040F00100B1E00020C4F286
:1019400042200021C0F88014FFF79AFA054600BF34
:10195000706A80077FF556AFFFF792FA401B0228A6
:10196000F6D9032002B0BDE8F08100BF0027C4F221
:10197000422700203866FFF783FA022D05460DD175
:101980003068800140F1DE80FFF77AFA401B0228C0
:101990004FF00300F4D902B0BDE8F0813068800157
:1019A0004FD5FFF76DFA401B02284FF00300F5D921
:1019B000F1E700BF40F20800C2F20000006844F600
:1019C000D351C1F26201A0FB0101480A019000BF9E
:1019D00000BF0198411E002801913FF413AF00BFE2
:1019E0000198411E002801913FF40CAF00BF0198FF
:1019F000411E002801913FF405AF00BF0198411E30
:101A000000280191E4D1FDE600210160FFF738FADA
:101A1000054600BF306880077FF5F1AEFFF730FA6A
:101A2000401B02284FF00300F4D9B4E77068216A24
:101A300000F480328A4209D1616A00F47010884251
:101A400004D1002002B0BDE8F08100BF012002B047
:101A5000BDE8F08140F004003062306A40F00100DF
:101A60001EE000BF20F001003062306A20F0040068
:101A70003062FFF705FA054641F28837306A800781
:101A800020D5FFF7FDF9401BB8424FF00300F5D910
:101A900081E700BF20F001003062306A20F00400CE
:101AA0003062FFF7EDF9054641F28837306A80076A
:101AB00008D4FFF7E5F9401BB842F7D9032002B07C
:101AC000BDE8F081B8F1000F3FF59FAEF06920F05E
:101AD0008050F06199E600BF40F4802030603068AB
:101AE00040F480301CE000BF20F48030306030686B
:101AF00020F480203060FFF7C3F90546306880038A
:101B00007FF55EAEFFF7BCF9401B64284FF0030081
:101B1000F4D940E720F480303060306820F4802031
:101B20003060FFF7ADF90546306880033FF548AEF9
:101B3000FFF7A6F9401B6428F6D9032002B0BDE8E0
:101B4000F08100BF206AB0F5803F05D17168A268BE
:101B500021F40031114371607168626A21F47411DB
:101B600011430843706001203866FFF789F9044685
:101B7000306880013FF565AFFFF782F9001B02284E
:101B80004FF00300F4D906E7411E0020B0EB116FBF
:101B90001CBF012070474EF21002CEF200025160CD
:101BA0004EF62351CEF20001F0230B700721906016
:101BB0001160704790F83C20012A4FF0020236D0A5
:101BC00010B580F83D200268D2F804E0D2F808C0D1
:101BD0000C682EF07003234340F2FF74C4F200043B
:101BE000A24253600ADCB2F1804F13D040F20043AE
:101BF000C4F200039A420DD011E000BF42F6004348
:101C0000C4F201039A4205D040F60003C4F2000377
:101C10009A4204D149682CF0800319439160012154
:101C2000002280F83D1080F83C20BDE810401046AE
:101C300070470000002804BF0120704710B590F8DD
:101C40003D1031B9002180F83C10044600F070F8D6
:101C50002046022180F83D10016840F2FF740B68B5
:101C6000C4F2000442F6004CA142C4F2010C15DC9F
:101C7000B1F1804F1AD040F20042C4F2000291420A
:101C800014D0A14218DCB1F1804F1DD040F20042C7
:101C9000C4F20002914217D01AE000BF614505D09E
:101CA00040F60002C4F200029142EAD1826823F0B9
:101CB00070031343A142E6DD614505D040F6000202
:101CC000C4F20002914203D1026923F4407313432A
:101CD000846923F08002D0F804E0C36822436145A0
:101CE0000A60CB62C1F828E002D14269CCF830200A
:101CF00001224A610B69DB0703D00B6923F0010362
:101D00000B6180F8462080F83E2080F83F2080F864
:101D1000402080F8412080F8422080F8432080F85D
:101D2000442080F8452080F83D20002010BD0000B0
:101D300082B0006840F60001C4F20001884211D070
:101D4000B0F1804F1BD141F21C00C4F202000168C7
:101D500041F001010160006800F00100019001986C
:101D600002B0704741F21C00C4F20200016841F069
:101D700004010160006800F004000090009802B0C7
:101D80007047000090F83C20012A4FF002026CD00E
:101D900080B580F83D20D0F800C04FF67772DCF8AF
:101DA000083023EA0202CCF808200B684F2B29DC0C
:101DB0001F2B45DD202B46D0302B44D0402B40F04C
:101DC000AF80D1F804E0C968DCF82030DCF82020CE
:101DD00022F00102CCF82020DCF8182022F0F002DA
:101DE00042EA011123F00A0242EA0E02CCF818106E
:101DF000CCF82020DCF8081041F0470121F0300138
:101E000028E000BF6F2B33DDB3F5005F74D0B3F56E
:101E1000805F21D0702B40F08380D1E901E3C96855
:101E2000DCF8082043EA0E0322F47F4243EA012152
:101E30001143CCF80810DCF8081041F0770109E0F4
:101E40000BB1102B6CD1DCF8081021F07001194394
:101E500041F00701CCF808100022012180F83D1064
:101E6000002180F83C10BDE880401046704700BF5C
:101E7000502B21D0602B53D1D1F804E0C968DCF895
:101E80002030DCF8202022F01002CCF82020DCF8F2
:101E9000182022F4704242EA013123F0A00242EA03
:101EA0000E12CCF81810CCF82020DCF8081041F005
:101EB000670121F01001CDE7D1F804E0C968DCF832
:101EC0002030DCF8202022F00102CCF82020DCF8C1
:101ED000182022F0F00242EA011123F00A0242EA3D
:101EE0000E02CCF81810CCF82020DCF8081041F0D5
:101EF000570121F02001ADE7D1E901E3C968DCF821
:101F0000082043EA0E0322F47F4243EA01211143F1
:101F1000CCF80810DCF8081041F480419AE700BFC3
:101F200001229AE770B586B0006840F60001C4F25D
:101F3000000188424FF00001CDE90411CDE9021102
:101F400056D040F20041C4F20001884240D0B0F1C6
:101F5000804F67D141F21800C4F20200016840F6D8
:101F6000004441F0040101600168C4F2010401F081
:101F7000040101910199016802AD41F0080101607D
:101F80000068022600F00800019001984FF400401C
:101F90000290A4F58060294603960596FEF75CFE44
:101FA0000820CDE90206204629460596FEF754FE94
:101FB0000420C4F2010001684FF6FF42CFF6FF0291
:101FC000114041F0E06141F48071016006B070BDE4
:101FD00041F21800C4F20200016841F008010160FA
:101FE000006800F008000190019801200FE000BF98
:101FF00041F21800C4F20200016841F008010160DA
:10200000006800F00800019001984FF40070029001
:1020100002200390059040F60040C4F2010002A99E
:10202000FEF71AFE06B070BD90F83C30012B04BFDD
:10203000022070474FEAB202032A00F2F1802DE934
:10204000F043DFE802F003A53B7500BF036842F6EA
:1020500000461D6A1A6AC4F2010622F001021A62E1
:102060001A465C6852F818CFB3428E68D1F800E087
:1020700025F0020545EA06050CD1CE68D1E90578C0
:1020800024F4407425F00C0526F004063C43354347
:1020900044EA08042CF0730747EA0E075C609F616E
:1020A0004F6809695F631D629F6947F008079F6178
:1020B0009F6927F004079F61A6E000BF036842F60E
:1020C00000461D6A1A6AC4F2010622F480721A627E
:1020D0001A46D3F804C052F81CEFB3428E680C685D
:1020E00025F4007545EA06250FD1CE68D1E905989B
:1020F000360240F2FF4725F44065BE4335432CF4D9
:10210000405748EA090647EA061C2EF073072743A2
:10211000C3F804C0DF614F680969DF631D62DF69CE
:1021200047F00807DF61DF6927F00407DF616BE034
:10213000036842F60047D3F820C01A6AC4F20107C8
:1021400022F480521A621A465C6852F81C5FD1F879
:1021500000E08E68BB4204D14F6924F4804444EA15
:1021600087142CF4005747EA063725F4E64646EA7A
:102170000E265C60DE614E6809691E641F62DF69BD
:1021800047F40067DF61DF6927F48067DF613AE0C9
:10219000036842F600461D6A1A6AC4F2010622F07C
:1021A00010021A621A46D3F804C052F8184FB3420C
:1021B0008E68D1F800E025F0200545EA06150FD11C
:1021C000CE68D1E905986FF0400725F0C00507EA11
:1021D000061635432CF4406748EA090647EA860CA0
:1021E00024F4E64444EA0E27C3F804C09F614F6814
:1021F00009699F631D629F6947F400679F619F693A
:1022000027F480679F610902136819431160002158
:10221000BDE8F043002280F83C200846704700BF2C
:102220000121002280F83C2008467047002804BFA6
:102230000120704710B590F83D1031B9002180F8A9
:102240003C10044600F070F82046022180F83D1052
:10225000016840F2FF740B68C4F2000442F6004CBF
:10226000A142C4F2010C15DCB1F1804F1AD040F24A
:102270000042C4F20002914214D0A14218DCB1F134
:10228000804F1DD040F20042C4F20002914217D0AC
:102290001AE000BF614505D040F60002C4F200021A
:1022A0009142EAD1826823F070031343A142E6DD34
:1022B000614505D040F60002C4F20002914203D10C
:1022C000026923F440731343846923F08002D0F839
:1022D00004E0C368224361450A60CB62C1F828E08C
:1022E00002D14269CCF8302001224A610B69DB0738
:1022F00003D00B6923F001030B6180F8462080F8BE
:102300003E2080F83F2080F8402080F8412080F86F
:10231000422080F8432080F8442080F8452080F84F
:102320003D20002010BD0000006840F20041C4F2D2
:102330000001884218BF704781B041F21C00C4F20E
:102340000200016841F002010160006800F0020033
:102350000090009801B07047C1B1042908D0082945
:1023600014BF41224022825C012A05D016E000BF42
:102370003F22825C012A11D10222082910D00429AF
:1023800014BF80F8412080F83F200BE090F83E20F9
:10239000012A03D1022280F83E2003E00120704789
:1023A00080F84020006801F01F010122036A8A4082
:1023B00023EA02010162036A42F64441C4F20101C8
:1023C0001A43A1F14403984202620FD040F2FF7118
:1023D000C4F20001884213DCB0F1804F1CD040F2FF
:1023E0000041C4F20001884216D01CE00A6842F4A1
:1023F00000420A6040F2FF71C4F200018842EBDD46
:1024000042F60041C4F20101884205D040F60001C5
:10241000C4F20001884206D1816801F00701062953
:1024200004BF00207047016841F0010101600020F5
:1024300070470000FEE7000070B50368044653F8DB
:10244000140F400711D40E46481C29D086BB00BF8C
:102450001868400527D4FEF713FD236853F8140FBE
:10246000400737D518684007F2D5002070BD00BF7F
:1024700018684007F9D41868400514D41868400754
:10248000F3D4186840050ED418684007EDD41868D6
:10249000400508D4186840074FF0000048BF70BDE1
:1024A00018684005E4D56FF480601860042012E0DD
:1024B000154603E053F8140F4007D6D418684005BA
:1024C000F1D4FEF7DDFC401B2368B042F2D9586915
:1024D0004007EFD4202000212022216384F83D20F2
:1024E00084F83E10226C10432064012084F83C10D4
:1024F00070BD00002DE9F041054600681E461446F7
:1025000001F47F0201338FB242D0DDF81880B2F5BA
:10251000803F40F0878040693840C01BB0FA80F0AF
:102520004009844240F0C8804EB924E040693840F8
:10253000C01BB0FA80F04009844240F0BD80FEF735
:102540009FFCA0EB08012868B142EFD941693940EE
:10255000C91BB1FA81F149098C42E7D19BE000BF68
:1025600040693840C01BB0FA80F0400984424FF007
:10257000000040F0A280FEF783FC286841693940E2
:10258000C91BB1FA81F149098C42E9D183E000BF4E
:10259000B2F5803F24D100BF41693940C91BB1FA6F
:1025A00081F149098C4240F0878041693940C91B5B
:1025B000B1FA81F149098C4240F07E80416939408D
:1025C000C91BB1FA81F149098C4275D14169394081
:1025D000C91BB1FA81F149098C42DDD06CE000BF22
:1025E00081693940C91BB1FA81F149098C4263D133
:1025F00081693940C91BB1FA81F149098C425BD12B
:1026000081693940C91BB1FA81F149098C4253D122
:1026100081693940C91BB1FA81F149098C42DFD087
:102620004AE000BF80693840C01BB0FA80F0400922
:10263000844241D146B923E080693840C01BB0FADA
:1026400080F04009844237D1FEF71AFCA0EB080164
:102650002868B142F0D981693940C91BB1FA81F1CA
:1026600049098C42E8D116E080693840C01BB0FAB5
:1026700080F0400984424FF0000018BFBDE8F081AF
:10268000FEF7FEFB286881693940C91BB1FA81F168
:1026900049098C42E8D100202021286385F83D10AB
:1026A00085F83E00296C41F02001296485F83C0042
:1026B0000120BDE8F08100BF0020BDE8F0810000EE
:1026C000F0B581B0044600681D4643698FB203EA45
:1026D0000701B94202D1002001B0F0BD41691646A0
:1026E00001323CD0490512D47EB300BFFEF7C8FBCF
:1026F000411B2068B14203D941693940B9422BD10D
:1027000041693940B942E6D041694905EED50168D1
:1027100041F4007101606FF4806141610420002187
:102720002022216384F83D2084F83E10226C10435F
:10273000206484F83C10012001B0F0BD41693940AB
:10274000B942C8D041694905E1D4FEF799FB206838
:1027500041693940B942F1D02020E0E7416949059B
:10276000D5D441693940B942B5D041694905CED483
:1027700041693940B942AED041694905C7D4416980
:102780003940B942A7D041694905C0D441693940AF
:10279000B942E3D19FE7000070B50368044653F8DF
:1027A000140F000611D40E46481C29D086BB00BF6A
:1027B0001868400527D4FEF763FB236853F8140F0D
:1027C000000637D518680006F2D5002070BD00BF9E
:1027D00018680006F9D41868400514D41868000673
:1027E000F3D4186840050ED418680006EDD41868B4
:1027F000400508D4186800064FF0000048BF70BDBF
:1028000018684005E4D56FF480601860042012E079
:10281000154603E053F8140F0006D6D41868400597
:10282000F1D4FEF72DFB401B2368B042F2D9586962
:102830000006EFD4202000212022216384F83D20CF
:1028400084F83E10226C10432064012084F83C1070
:1028500070BD0000FEE70000FEE7000070470000CA
:1028600070470000FEF7E8BC70470000FEE700007C
:102870002DE9F04184B048F68C0040F2E404C0F643
:102880000C00C2F2000402904FF0640802AA204635
:102890004E210423CDF80080FEF7AAFB42F62D1648
:1028A0004627C0F60D1603AD20464E212A460423C6
:1028B0000396CDF80080FEF79BFB013FF4D104B0F6
:1028C000BDE8F08170B582B03220FEF7B1F940F278
:1028D000E40443F63C06C2F20004C0F60C0664258C
:1028E00001AA20464E21042301960095FEF780FBA5
:1028F0000520FEF79DF901AA20464E2104230196EA
:102900000095FEF775FB0120FEF792F901AA20461B
:102910004E21042301960095FEF76AFB0A20FEF77C
:1029200087F942F62C00C0F60C00019001AA20465F
:102930004E2104230095FEF75BFB0A20FEF778F991
:1029400042F62C00C8F68C00019001AA20464E21C8
:1029500004230095FEF74CFB0120FEF769F940F6D1
:102960000C00C8F68C00019001AA20464E210423D9
:102970000095FEF73DFB0120FEF75AF940F60C00EA
:10298000C1F61C00019001AA20464E2104230095A7
:10299000FEF72EFB0120FEF74BF90120FEF748F968
:1029A00040F60C00C6F66C00019001AA20464E21AC
:1029B00004230095FEF71CFB0120FEF739F940F6D1
:1029C0000C00CCF6CC00019001AA20464E21042335
:1029D0000095FEF70DFB02B070BD0000012805D088
:1029E000002808BF41F0800102E000BF41F0C001B3
:1029F00080B582B021F00F00090100F10C0208300F
:102A00008DF8050001F10C008DF8060001F10800B9
:102A10008DF8070040F2E4008DF804204FF0640CBC
:102A2000C2F2000001AA4E210423CDF800C0FEF737
:102A3000DFFA02B080BD00000178002908BF7047AE
:102A4000F0B583B040F2E404461E6427C2F20004ED
:102A500002AD00BF21F00F00090100F10D020930A5
:102A60008DF8090001F10D008DF80A0001F109004F
:102A70008DF808208DF80B0020464E212A460423AD
:102A80000097FEF7B5FAB17801360029E2D103B01C
:102A9000BDE8F0407047000096B0FEF7DBFB002475
:102AA0000120CDE91144CDE90F4410901020119080
:102AB0004FF4E010022515900CA8CDE90D440594C3
:102AC000CDE903440C95CDE91354FEF75DFE28B122
:102AD000EFF3108072B600BFFEE700BF0F20CDE914
:102AE00006054FF48060CDE9090406A80121089489
:102AF000FEF744FD20B1EFF3108072B6FEE700BF91
:102B00004FF480400226049002A80296FEF7B4FC1F
:102B100020B1EFF3108072B6FEE700BF002741F24C
:102B20001800CDE90E77CDE90C77C4F202000168F8
:102B300041F2000941F0100101600168C4F201098D
:102B400001F0100106910699016840F6004541F038
:102B5000200101600168002201F020010691069920
:102B60000168C4F2010541F00401016001684FF4FD
:102B7000005401F0040106910699016841F0080132
:102B8000016000684FF4005100F0080006900698BC
:102B90004846FEF76FF90F960CAE0C940124484698
:102BA0003146CDE90D47FEF757F81020CDE90C0767
:102BB000284631460E97FEF74FF84FF48070CDE966
:102BC0000C07284631460E94FEF746F840F2700B8B
:102BD000C2F2000B42F20041C4F20101584640F833
:102BE000441F4FF4602107730775C161C0E9017785
:102BF0000461FDF74BFD28B1EFF3108072B600BF02
:102C0000FEE700BF0BF144060CA93046CDE90C7479
:102C10000E97FDF797FC28B1EFF3108072B600BF56
:102C2000FEE700BF40F238100021C2F2000040F27F
:102C3000E7370991CDE90711CDE90211CDE911116D
:102C4000CDE90F114FF080422323C0E90217016143
:102C50008021C0E900238161FEF7ECFF20B1EFF392
:102C6000108072B6FEE700BF4FF48050069040F22D
:102C70003810C2F2000006A9FFF784F820B1EFF384
:102C8000108072B6FEE700BF40F23810C2F20000BA
:102C9000FFF7CCFA20B1EFF3108072B6FEE700BF69
:102CA00040F23810C2F2000002A9FEF783FF28B1FB
:102CB000EFF3108072B600BFFEE700BF60200C90FB
:102CC0000020CDE90D00109040F23810C2F2000053
:102CD0000CA90022FFF7A8F920B1EFF3108072B61B
:102CE000FEE700BF40F23810C2F200000CA9042237
:102CF000FFF79AF920B1EFF3108072B6FEE700BF3C
:102D000040F23817C2F200073846FFF70BF940F2DD
:102D100080100021C2F2000040F2E734CDE9061134
:102D2000CDE91111CDE90F11A5F584322323C0E9B6
:102D3000021401618021C0E900238161FFF776FA66
:102D400020B1EFF3108072B6FEE700BF40F28010B2
:102D5000C2F2000006A9FEF72DFF18B1EFF31080B4
:102D600072B6FEE760200C9040F280100024C2F2A0
:102D700000000CA90822CDE90D441094FFF754F986
:102D800020B1EFF3108072B6FEE700BF40F280186A
:102D9000C2F200084046FFF7C5F840F2C810A5F59A
:102DA0008231C2F20000232240F2E73380E81600AD
:102DB00080210994CDE90744CDE90244CDE91144CD
:102DC000CDE90F44C0E903348161FEF733FF18B148
:102DD000EFF3108072B6FEE74FF48050069040F299
:102DE000C810C2F2000006A9FEF7CCFF20B1EFF335
:102DF000108072B6FEE700BF40F2C810C2F20000B9
:102E0000FFF714FA20B1EFF3108072B6FEE700BFAF
:102E100040F2C810C2F2000002A9FEF7CBFE18B1C2
:102E2000EFF3108072B6FEE760200C9040F2C810FD
:102E30000024C2F200000CA90C22CDE90D4410942C
:102E4000FFF7F2F820B1EFF3108072B6FEE700BF93
:102E500040F2C810C2F20000FFF764F840F2E4004C
:102E6000A5F53841C2F2000048F2A0624FF4804359
:102E7000C0F2010280E81600C0E90343C0E905443E
:102E8000C0E90744FEF702F820B1EFF3108072B6F4
:102E9000FEE700BF40460821FFF75EFA38460021F2
:102EA000FFF75AFA38460421FFF756FA40F2C810E5
:102EB000C2F200000C21FFF74FFAFFF703FD4FF0BD
:102EC000010A9BF8040010218BF803002846FDF747
:102ED000CBFF9BF803209BF80210012A8BF804001B
:102EE00002BF0028C1F101018BF80210C8B201280D
:102EF00002D028B9002001E040F2E7303968486389
:102F0000FFF7B6FC00200021FFF768FD9BF80200E8
:102F1000012803D030B90FF28C6001E00FF2786025
:102F2000FFF78AFD4FF60840CFF6FF7059F8000012
:102F3000C00508D49BF800000130C1B2012988BF48
:102F400000208BF80000DBF8140040F6E832A0F215
:102F5000E931914206D840F68A41884226D91420A8
:102F600035E000BF40F2C810C2F200004CF200028F
:102F70000068C4F274420021CBF8242040F2D3321E
:102F80008BF805100264386801228163D8F80000CC
:102F9000C16348464FF40051FDF76CFF9BF80000F9
:102FA000012804BF00208BF80000B2E0B0F5F06FFC
:102FB00004D9884202D0202009E000BFA0F29D4041
:102FC00040F2E32188424FF0000038BF3F209BF8D9
:102FD00000108BF80500012970D0002940F099807D
:102FE000DBF818404FF07E51204600F0E1FF9BF8DF
:102FF00001100028019140F0978100212046C4F281
:10300000E00100F0CEFF002840F08E8101980028FA
:1030100040F08A81D8F8000040F2E731C163386897
:103020000022816348464FF40051FDF723FFFFF76C
:103030001FFC01200021FFF7D1FC0FF27450FFF7B5
:10304000FBFC01200D21FFF7C9FC0FF27050FFF7C8
:10305000F3FCDBF81C200BF1080420460FF2605152
:10306000FDF7CCF801200A21FFF7B8FC2046FFF756
:10307000E3FCDBF820400021204600F099FF002807
:1030800040F0B08100212046C4F2C00100F089FF69
:10309000002840F0A78100208BF806008BF8010083
:1030A00040F2C810C2F2000000210068C4F2B22150
:1030B000CBF8241059210164F0E100BF4FF4807077
:1030C000ABF80000FFF7D4FB00200021FFF786FCDF
:1030D00044F2C460C0F60000FFF7AEFC40F2C81036
:1030E000C2F200004CF200010068C4F27441CBF857
:1030F000241040F2D33101643868002181634846CE
:103100004FF400510122FDF7B5FE4FF4FA70FDF7C0
:103110008FFD6420FDF78CFD00208BF80700002058
:10312000CDE90C0A0E9030460CA90024FDF70AFAEE
:10313000002840F025823046FDF7D2FC304664215D
:10314000FDF796FB3046FDF79DFADBF828100844A2
:10315000CBF828003046FDF72BFD01200C90CDE97F
:103160000D0430460CA94FF0010AFDF7EBF90028D9
:1031700040F00A823046FDF7B3FC30466421FDF78B
:1031800077FB3046FDF77EFADBF82C100844CBF8CD
:103190002C003046FDF70CFD9BF80700411CC8B21F
:1031A0000A288BF80710BAD3DBF824100191DBE969
:1031B0000A21B1FBF0F1B2FBF0F0CBF814100021C2
:1031C000CBE90A11CBF8300000F048FC43F233336E
:1031D0004FF03332C4F20B0300F054FC44F200030E
:1031E0000022C4F28F0300F04DFC4AF600030022D7
:1031F000C4F2910300F046FC0446019800914FF0A0
:103200007E5100F057FE4FF20001C4F27F5101F0F1
:103210007BF80021C4F2A53101F076F800F01EFE23
:103220000B4600990246204600F0BCFA00F0E0F997
:10323000CBF818000920CDE90C0A00200E9030468A
:103240000CA9FDF77FF9002840F0A2813046FDF778
:1032500047FC30466421FDF70BFB3046FDF712FAC0
:1032600000F0D6FF0446DBF810002146CBF83440CE
:10327000019000F096FE002804BFCBF810400194A6
:10328000DBF80C10019800F015FECBF80C0030466E
:10329000FDF78EFC0120FDF7CBFCDBF83800DBF8F6
:1032A0000C4000F0B5FF0146204600F09BFECBF835
:1032B0003C0000F0D3FD46F266634FF06632C4F284
:1032C0000A0300F0DFFB4FF600630022C4F2AF03F5
:1032D00000F068FA44F6CF2246F6F673CFF67B721A
:1032E000CCF2030300F0B6F900F082F9CBF840000D
:1032F00000F0B4FD43F24C724EF26053C4F28912F6
:10330000C3F6B07300F04EFA02460B4600F0BAFB6B
:1033100000F06EF900F056F9CBF820000020CBF851
:103320003400CBE90300CCE50198012815D0002139
:103330002046C4F2E00100F03BFE00287FF4E9AE35
:1033400000212046C4F2201100F02BFE00287FF45B
:10335000E0AE019800287FF4DCAE00248BF8014039
:10336000FFF786FA00200021FFF738FB44F2C46023
:10337000C0F60000FFF760FBD8F8000040F2E7312C
:10338000C16338680021846340F2C810C2F20000B3
:103390000068C4F24421CBF824103121016448466E
:1033A0004FF400510122FDF765FD9BF80600013046
:1033B0008BF806006420FDF73BFC9BF806001F28F5
:1033C000FFF4A7AE00208BF8060040F2C810C2F24E
:1033D000000000210068C4F21011CBF8241009216C
:1033E000016496E600212046C4F2C00100F0E7FD2A
:1033F000C0B900212046C4F24C2100F0CBFD88B9B1
:1034000000208BF806008BF80100204600F026FD16
:1034100043F233334FF03332C3F6E37300F0C2F9B3
:1034200024E000BF00212046C4F24C2100F0C0FD82
:1034300000284FD100212046C4F2A02100F0AAFDAF
:10344000002847D100208BF806008BF801002046A9
:1034500000F004FD00230022C4F2040300F0A2F9EE
:1034600000230022C4F2500300F0F4F800230022ED
:10347000C4F2240300F006FB00230022CBF6F07315
:1034800000F0E8F800F0B4F8CBF8240000F0A0FE5B
:1034900040F2C811C2F20001096808649BF80500F7
:1034A000DBF82040023000F0B3FE0146204600F079
:1034B0007FFD00287FF42DAE386800218BF80610C0
:1034C0008BF801A0816348464FF400510122FDF7BB
:1034D000D1FC1EE600212046C4F2A02100F05AFDD6
:1034E00070BB9BF8000001282AD02046002100F084
:1034F00043FD0028D2D09BF8060001308BF806006F
:103500006420FDF795FB9BF806001F28C6D340F208
:10351000C810C2F2000000220068C4F2101200219C
:10352000CBF8242009228BF80610026438680122A7
:10353000816348464FF40051FDF79CFCAEE700BFA5
:103540004FF48070ABF8000040F2C810C2F20000E7
:103550004CF200010068C4F27441CBF8241040F230
:10356000D331016438680021816348464FF400512B
:103570000122FDF77FFC4FF4FA70FDF759FB8DE750
:10358000EFF3108072B6FEE7EFF3108072B6FEE73D
:10359000EFF3108072B6FEE74143204348415247A3
:1035A000494E47004443204348415247494E470053
:1035B00043555252454E543A00000000410000006D
:1035C0002564000070B5054600F06AFF044620F04F
:1035D0000040C0F1FF40C00F08D025F00040C0F10E
:1035E000FF40C00F04BF0120FCF794FE204670BDD1
:1035F00021F0004201F00043A2F16052B2F5801FB9
:1036000028BFD2F17F6C0BD95FEA001C43EAC202EB
:1036100042EB507018BF704728BF20F00100704780
:10362000B2F5801FBCBF184670474FEA410C1CF52D
:10363000001F02D2084600F02EBF70B500F0CCFA91
:1036400000000089FFF7F6BF4FF00040A0F58000B2
:103650007047000010B591EA030F48BF83F00043A4
:1036600000F11683841A71EB030C05D2121943EB97
:103670000C03001B61EB0C014FEA1154A4EB135C2B
:10368000DFF81CE11EEA430F18BF9EEA445F00F01A
:10369000748021EA045123EA0E0343F48013DCF121
:1036A000200E32D322FA0CFE10EB0E0023FA0CFE91
:1036B00041EB0E01CCF1200E03FA0EFE10EB0E00D2
:1036C000CCF1200E51F10001B1F5801F32D201EB97
:1036D000045112FA0EF2BDE8104058BF7047401C6A
:1036E00038BF5FEA420218BF7047002814BF20F0BD
:1036F000010041F100014FEA410313F5001F38BFFB
:103700007047A1F1C04100F0B5BA012A43EB0302B2
:10371000ACF1200CDCF11F0E32BF4FF0000E23FA8B
:103720000CF310EB030041EB0451B4EB115FD0D06C
:10373000A1EB045101F58011490801EB04515FEA46
:1037400030000ED350F1000038BF12FA0EFE08D13F
:10375000BDE81040C9E7401C38BF5FEA4202CAD149
:10376000C3E7BDE810404FEA410313F5001F38BF1F
:103770007047A1F1C04100F07DBA9EEA445F08D0D5
:1037800011EA5E0FBDE8104004BF01F000410020C7
:103790007047BDE8104070B500F01EFA64FBBE3EF5
:1037A0000000E0FF2DE9C04130B4DFF8A8C23CEAD8
:1037B000111418BF3CEA131400F0F0801CEA111435
:1037C00081EA030544EAD57418BF1CEA131500F01A
:1037D000CB80A4EB050404F17F7404F500344FF0B2
:1037E000004545EAC12145EAC32341EA505143EA75
:1037F00052534FEAC0204FEAC222994208BF90427A
:1038000000F0A0804FEA13650FF24816765D4FEA8C
:10381000134506FB05F7C7F1807706FB07F74FEA6C
:10382000D737A7FB03687642A7FB06CEC8F58038DA
:1038300038BFA8F1010807FB08E6A6FB028C4FF091
:10384000000EE6FB03CED8F100086FEA0C0C5CF129
:10385000000C6FEA0E0E4EF1004EA6FB0C584FF016
:103860000007E6FB0E87A1FB08C6A0FB07CE16EB00
:103870000E064FF0000545F10005E1FB076515F167
:10388000E04E7EBFA4F580345FEA46066D4116F136
:10389000800745F100054FEA172747EA05674FEA19
:1038A00015254FEA0666A6F1DE46B6F1805F20D9FF
:1038B000384605EBC47124F0010C01EB0C11BCF18E
:1038C000FE6F02D8F0BCBDE8008124425CBF01F568
:1038D000801E9EEAC47F02D4F0BCBDE80081244271
:1038E00000F13980A1F1C041F0BCBDE8004100F019
:1038F000C1B94FEAD02040EA41504FEAD1214FEA06
:10390000D22242EA43524FEAD323A7FB028607FBA7
:10391000036605FB02661EEA0E0F58BFA6EB0056B3
:10392000B6EB00564FEA520E4EEAC37E18EB0E0E6F
:1039300056EB530EBCD518EB02085E417F1C55F1C7
:103940000005B5E74FF480154FF000074FF0000673
:103950004FF00008ACE701F1C04101F000414FF029
:103960000000F0BCBDE800810CEA131511EA0C1F41
:1039700000D00CE013EA0C1F00F025804FF000008F
:1039800081EA030101F00041F0BCBDE80081F0BC18
:10399000BDE8004181EA030100F06CB9F0BCBDE86C
:1039A000004170B500F018F9097EFC3E00F007B840
:1039B0004FF0000081EA030101F00041704781EA05
:1039C000030100F057B9F0BCBDE8004122494FF0B7
:1039D00000007047FFFDFBF9F7F5F4F2F0EEEDEBB8
:1039E000E9E8E6E4E3E1E0DEDDDBDAD8D7D5D4D3FD
:1039F000D1D0CFCDCCCBCAC8C7C6C5C4C2C1C0BF49
:103A0000BEBDBCBBBAB9B8B7B6B5B4B3B2B1B0AF4E
:103A1000AEADACABAAA9A8A8A7A6A5A4A3A3A2A132
:103A2000A09F9F9E9D9C9C9B9A99999897979695ED
:103A300095949393929191908F8F8E8E8D8C8C8B89
:103A40008B8A898988888787868585848483838211
:103A5000828181800000FF070000F87FB0FA80F3C8
:103A600010FA03F10AD0C3F11D0303F580634FEA96
:103A700003524FEA415002EBD12170474FF0000052
:103A80007047000070B5DFF848C11CEA111E1EBF68
:103A90001CEA13159EEA0C0F95EA0C0F00F06F80DC
:103AA00081EA03044EEAD47EAE4421EA4C1123EAB3
:103AB0004C1341F4801143F48013AEF17F7EA1FBDF
:103AC000024CA0FB0365361955EB0C05A1FB034C1A
:103AD0004CF10003A0FB021C16EB0C06654153F1F0
:103AE0000003094218BF46F0010613F4007F0BD112
:103AF0004FEA03314FEA053041EA155140EA1650CA
:103B000034036FF003020AE04FEAC3214FEAC520F5
:103B100041EA555140EA5650F4026FF0020202EBBE
:103B20002E4201EB025585EACE710AD05FEA440CC1
:103B300018BF24F0004450F1000041F1000120EAD8
:103B4000D47040F2FE7C624500D270BDA84214BF22
:103B50004FF080444FF04044002E08BF0024BEF1D7
:103B6000806FA8BFA1F1C041BDE8704080F28280A3
:103B700001F1C04101F000414FF0000070470CEA34
:103B800013159EEA0C0F18BF95EA0C0F06D081EAB8
:103B9000030E4FF000000EF0004170BD00F01CF865
:103BA0008900013E00F007B800F009B84FEA430C65
:103BB0005FEA5C5C08D081EA030100F05BB84FEA81
:103BC000410C5FEA5C5CF6D102494FF0000070479F
:103BD0000000FF070000F87F0EF1020E2EF0030E2A
:103BE0005EF8046B364205D4012A43EB030515F554
:103BF000001F12D8012841EB010C1CF5001F0CD846
:103C00000ED14FEAD17C0CEB4C0C0CF1020C15F5EB
:103C1000001F08BF4CEBD37C04E04FF0080C01E020
:103C20004FEAD37C0CEB4C0526FA05F606F00706A6
:103C3000B6F1040C06D20EEB860CBDE870404CF0D9
:103C4000010C6047DFE80CF0090B02024FF0004165
:103C5000A1F500214FF0000070BD19461046012863
:103C600051EB010418BFD4F5001484BF002001F00B
:103C7000004170BD0808A0F500114FEA31017047FE
:103C800010B591EA030F48BF83F000433FF5EAAC5B
:103C9000841A71EB030C07D28CF0004C121943EB21
:103CA0000C03001B61EB0C014FEA1154A4EB135CF5
:103CB000DFF8A4E11EEA430F18BF9EEA445F00F05C
:103CC000B48021EA045123EA6E035242C3EB6E032F
:103CD00038BF5B1EDCF1200E25D322FA0CFE10EB60
:103CE0000E0043FA0CFE41EB0E01CCF1200E03FA5C
:103CF0000EFE10EB0E00CCF1200E51F1000129D484
:103D000001EB045112FA0EF2BDE8104058BF7047A3
:103D1000401C1CBFB2F1004F704700280CBF491C6B
:103D200020F00100704712EB020E43EB030218BFB4
:103D30004FF0010E4EEA4202ACF1200CDCF11E0EF7
:103D400056D943FA0CFE10EB0E00CCF11E0E51F1C9
:103D5000FF31D5D50EF1010E12FA0EFE404141EBB6
:103D6000010101EB445C5FEA5C5C10D901EB04519A
:103D700010EBDE7038BFBEF1004FBDE8104018BF39
:103D8000704700280CBF491C20F00100704734D256
:103D90004FEAD42C24F4006411F500111BD0B1FAC1
:103DA00081F20B3AA41AA41ED2F12003914030FAFA
:103DB00003F31943904001EBCC7101EB0451002C4B
:103DC000BDE81040A8BF704701F1C04101F00041BB
:103DD0004FF000007047B0FA80F310FA03F102D1FF
:103DE000BDE810407047E41A173C4805C90AE2E7ED
:103DF00001EB0451BDE81040704749104FEA300014
:103E000001EB0451BDE8104002E04FF000017047A3
:103E10004A0008BF0042F8D0B2F5001F28BF704723
:103E200001F000414FF0000070479EEA445F07D068
:103E300011EA5E0FBDE8104004BF0021002070476A
:103E4000BDE8104070B5FFF7C7FE00BF40DFF63E8B
:103E5000104683F0004170470000E0FF43004FEA46
:103E6000D30C4FEA3C0C43401FBF40070CF160519C
:103E700013F0FE4F70471CF0006F03D10CF00041AF
:103E8000002070470CF0004343EA507040EACC0039
:103E900010B500F0BAFA00BF000000924FEA00012E
:103EA000FFF7E8BE4FF00041A1F500214FF0000000
:103EB0007047000090EA010F48BF81F0004100F117
:103EC0007E83421A3CBF801A89184FEAD052A2EB77
:103ED000D1534FF07F4C1CEA410F18BF9CEA026F90
:103EE00000F03B804FF0004C4CEA00204CEA0121EE
:103EF00021FA03FC10EB0C0C1ED202F1FF325FEA38
:103F00001C2040EBC25038BF70471CF07F0F4FEAB7
:103F1000400C18BFBCF17F4F38BF7047C3F120037E
:103F2000994008BF20F00100BCF17F4F38BF7047B7
:103F3000A0F1C04000F0AFBA4FEA3C00000A40EBED
:103F4000C25028BF1CF0FF0F4FEA400CE6D018BF4C
:103F5000BCF17F4F38BF7047EAE79CEA026F05D09B
:103F600010EA5C0F08BF00F00040704710B500F089
:103F70004CFA00BF64FBBE3E10B500F0F5F80CBF74
:103F80000120002010BD10B500F0EEF814BF012094
:103F9000002010BD10B500F04FF98CBF01200020AB
:103FA00010BD10B500F048F92CBF0120002010BD55
:103FB00010B500F075F994BF0120002010BD10B5B8
:103FC00000F06EF934BF0120002010BD401058BF32
:103FD000C0F14040491058BFC1F140418142EFF368
:103FE000008070474FF47F0C1CEAD0121EBF1CEA01
:103FF000D11392EA0C0F93EA0C0F00F0858090EA3F
:10400000010F48BF42F4807240F4000C41F40000FC
:104010002CF07F4120F07F4000B5A2EB03028142EB
:104020000FF2081CACEB504E9EF800E0C0F100000F
:104030004FEA4E0E00FB0EFC38BF49004FEA2C1C25
:104040000CFB0EF34FEACE1E0EEB635E4FEA112C13
:104050000EFB0CFC4FEAC1214FEA1C5300FB03117D
:1040600002F5FA024FEA112C0EFB0CFC4FEA01316B
:104070004FEADC4C00FB0C1142EB2242C14228BF4C
:1040800009184CEB03335DF804EB10EB410143EBF3
:10409000C250B2F57C0F38BF704729D512F0F00F2F
:1040A0001CBF00F1C04000F00040704700818283D7
:1040B0008485868788898B8C8D8E8F919293959637
:1040C00097999A9C9D9FA0A2A3A5A7A8AAACAEB0C1
:1040D000B2B3B5B7B9BCBEC0C2C5C7C9CCCED1D4C6
:1040E000D7D9DCDFE2E6E9ECF0F3F7FAFE000000F6
:1040F0004FEA400C0CF1807CBCF17E4F28BF70472A
:10410000B0F1C04000F0C7B90CEAD11390EA010F3A
:1041100048BF42F48072624538BF634507D213F44A
:104120007F0F16D080EA010000F00040704710B504
:1041300000F06BF9097EFC3E00F005B880EA010052
:1041400000F00040704780EA010000F0004000F0FD
:10415000A2B912F47F0F04BF0248704780EA010041
:1041600000F099B90000C07F50EA010C00F1138003
:104170001CF5000F58BFBCF5000F01D488427047F2
:1041800007D710F5000F58BF11F5000F15D488425E
:104190007047894270471CF5000F04D5BCF5000F2D
:1041A000F7D5814270474FF0807C1CEB400F38BF41
:1041B0001CEB410F01D28142704710B500F025F988
:1041C000922449004FF000504FF08051FFF7FEBE9F
:1041D000C10DD1F19E0206DB4FEA002343F00043FC
:1041E00023FA02F07047004207D54FEA4001B1F1CF
:1041F000FE4F02D24FF00000704710B500F005F9F5
:1042000049922480002070476FEA20007047000028
:10421000B0FA80F310FA03F2C3F19D030AD0D90576
:1042200001EB1220530638BF704700F1010008BFB0
:1042300020F001007047000050EA010C00F11380EB
:104240001CF5000F58BFBCF5000F01D48842704721
:1042500007D710F5000F58BF11F5000F15D488428D
:104260007047894270471CF5000F04D5BCF5000F5C
:10427000F7D5814270474FF0807C1CEB400F38BF70
:104280001CEB410F01D28142704710B500F0BDF820
:10429000922449004FF080504FF00051FFF796BE36
:1042A00050EA010C00F113801CF5000F58BFBCF55B
:1042B000000F01D48842704707D710F5000F58BF90
:1042C00011F5000F15D488427047894270471CF5DC
:1042D000000F04D5BCF5000FF7D5814270474FF0B1
:1042E000807C1CEB400F38BF1CEB410F01D2814298
:1042F000704710B500F089F8922449004FF0005043
:104300004FF08051FFF762BE4FF47F0C1CEAD012D1
:104310001EBF1CEAD11392EA0C0F93EA0C0F00F0B7
:10432000478090EA010F48BF42F480724FF0004C82
:104330004CEA00204CEA012102EB0302A0FB01132E
:10434000A2F50002002918BF43F001035B0028BF5B
:104350004FEA330342EB22425FEA132C4CEBC2508C
:104360002EBFBCEB436FB2F57C0F70474FEA036C76
:10437000BCF1004F08BF20F00100B2F57C0F38BF40
:1043800070470BD582F0FF0212F5803FC8BF70471F
:1043900000F1C040D8BF00F00040704700F5000CAD
:1043A0005FEA4C0C48BF7047B0F1C04000F073B8F2
:1043B0000CEAD11390EA010F48BF42F480726245C3
:1043C00038BF634504D280EA010000F00040704726
:1043D00010B500F01AF800BF8900013E00F007B8E0
:1043E00000F009B85FEA410C5FEA1C6C08D080EA73
:1043F000010000F050B85FEA400C5FEA1C6CF6D197
:104400004FF00040A0F5800070470EF1020E2EF034
:10441000030E5EF8044B244204D44FEA4102B2F189
:104420007F4F11D84FEA4003B3F17F4F0CD80ED124
:104430004FEAD07C0CEB4C0C0CF1020CB2F17F4F2C
:1044400008BF4CEBD17C04E04FF0080C01E04FEAD0
:10445000D17C0CEB4C0324FA03F404F00704B4F110
:10446000040C06D20EEB840CBDE810404CF0010C9D
:104470006047DFE80CF0070802024FF00040A0F5AB
:10448000800010BD0846420018BFD2F1807288BF7C
:1044900000F0004010BDFF2141EAD050C005704738
:1044A0004FEAD051002988BFD1F1FF0240F2758058
:1044B0004FEA002040F0004070B501F17D0149084D
:1044C00038BF40080EA2430ED25C040C02FB02F37C
:1044D00004FB03F3C3F14043A3FB0254ED0D45EA93
:1044E000442202FB02F3A0FB03546D42C4F140449A
:1044F00038BF641EA2FB05350023E2FB0453EA0B20
:1045000042EA4342A0FB023212F14004E409A2F164
:10451000210303F07F031F2B32D904EBC15070BD80
:10452000FEFAF7F3F0ECE9E6E4E1DEDCD9D7D4D229
:10453000D0CECCCAC8C6C4C2C1BFBDBCBAB9B7B65A
:10454000B4B3B2B0AFAEACABAAA9A8A7A6A4A3A2BD
:10455000A1A09F9E9E9D9C9B9A99989797969594B3
:104560009393929190908F8E8E8D8C8C8B8A8A896A
:1045700089888787868685848483838282818180F7
:1045800004FB04F6B6EB004603D5E64248BF641CC4
:10459000C3E7A64258BF641CBFE711F0FF0F02D16A
:1045A00000F00040704710B5FFF72FFF7FDBFFBE24
:1045B00090EA010F48BF81F000413FF582AC421AFA
:1045C00004D882F00042A0EB020011444FEAD0521E
:1045D000A2EBD1534FF07F4C1CEA410F18BF9CEA6D
:1045E000026F4AD04FF0004C4CEA00204CEA012107
:1045F00021FA03FCB0EB0C0C0FD412F0FE0F36D0F6
:104600005FEA4C001DD5001240EBC25038BF704726
:104610001CF03F0F18BF70470BE05FEA1C20A2F1AF
:10462000010240EBC25038BF70471CF07F0F18BF2B
:104630007047C3F12003994014BF401E20F00100D1
:1046400070474FEA1223800808BF7047B0FA80FC19
:10465000A2EB0C02CCF1280C60FA0CF093EA122FBA
:1046600004BF00EBC25070474FEAC3707047130A93
:104670005FEADC1008BF7047F6E79CEA026F04D0DF
:1046800010EA5C0F08BF0020704710B5FFF7BDFEB1
:1046900040DFF63E81F0004070470000000000005F
:1046A00000000102030406070809000000000102DF
:1046B0000304010202030405060708090A0B0C0D96
:1046C0000E0F1010434F4E4E45435445440000001A
:1046D000F046000800000020100000005001000813
:1046E00000470008100000200808000070010008C2
:1046F00001000000100000000024F4000000000091
:04000005080000ED02
:00000001FF
